:020000040800F2
:1000000048070020A1010008CD2400089120000825
:10001000C9240008B10A00088D250008000000006E
:10002000000000000000000000000000D5240008CF
:10003000B50A000800000000D1240008D9240008F7
:10004000BB010008BB010008BB010008BB010008A0
:10005000BB010008BB010008BB010008BB01000890
:10006000BB010008BB010008BB010008BB01000880
:10007000BB010008BB010008BB010008BB01000870
:10008000BB010008BB010008BB010008BB01000860
:10009000BB010008BB010008BB010008BB01000850
:1000A000BB010008BB010008BB010008E1240008F7
:1000B000BB010008BB010008BB010008BB01000830
:1000C000BB010008BB010008BB010008BB01000820
:1000D000BB010008BB010008BB010008BB01000810
:1000E000BB010008BB010008BB01000800F002F8DA
:1000F00000F047F80AA090E8000C82448344AAF17B
:100100000107DA4501D100F03CF8AFF2090EBAE878
:100110000F0013F0010F18BFFB1A43F0010318473B
:10012000DC360000FC360000103A24BF78C878C1E5
:10013000FAD8520724BF30C830C144BF04680C60ED
:10014000704700000023002400250026103A28BF35
:1001500078C1FBD8520728BF30C148BF0B60704739
:10016000662903F0D482002070471FB500F02AFBF7
:1001700004000020002103F02DF8E0601FBD10B541
:1001800010BD00F01FFC1146FFF7EFFF02F032FB3D
:1001900000F03DFC03B4FFF7F2FF03BC00F080FC6D
:1001A0000948804709480047FEE7FEE7FEE7FEE70B
:1001B000FEE7FEE7FEE7FEE7FEE7FEE70448054947
:1001C000054A064B70470000DD240008ED000008DA
:1001D0004801002048070020480300204803002071
:1001E0000FB41CB5074B06AA7B44694600900598DE
:1001F00000F0CFFA0020694600F0DEFA1CBC5DF882
:1002000014FB0000CD05000070B504468569006848
:10021000C10601D5302600E02026C00707D070BDFA
:10022000D4E9012130469047206A401C20626D1EAF
:10023000F6D570BD70B5044685690078C00707D152
:1002400070BDD4E9012120209047206A401C206223
:100250006D1EF6D570BD2DE9F0474FF0000A8946B6
:100260000446C0F820A02046E1688847002876D0E0
:10027000252806D0D4E901219047206A401C20623D
:10028000F1E7E168204600258847C4F81CA006462F
:100290000027C4F818A02A2E09D0304602F092FF99
:1002A00038B304EB8708303EC8F8186019E059F8F5
:1002B000041B204604EB87029161E1688847012F07
:1002C000064618D1E069002820DA25F020051DE057
:1002D000D8F8180000EB800006EB40003038C8F872
:1002E00018002046E1688847064602F06BFF0028A8
:1002F000EED1012F0AD02E2E08D12046E168884782
:100300007F1C0646022F45F02005C4DBA0690028AB
:1003100003DA404245F00105A061E80701D025F06D
:100320001005B6B1A6F14100192802D8203645F4CF
:1003300000654A463146204625604D46FFF710FFCE
:1003400058B1012806D0ED1D25F0070000F108097D
:1003500089E704E005F1040985E730468AE7206A69
:10036000BDE8F0877047704770472DE9FF4F0C4696
:100370001E464FF0FF378BB0D2E90001DDF86080F8
:100380000A908A46C1F30A5505B93D460021084640
:100390004FF00000BAF1000F00F4400005DA00EB66
:1003A00080004FF4400101EA50004FEA9059B9F142
:1003B000010F00DDB9460A9850EA4A000ED044F613
:1003C0001050A5F2FF3545432F14B8F1000F1ED091
:1003D0007542291E1EDDC9F100021CE0B8F1010FB3
:1003E0004FF0000001D0302103E0F24305E021543A
:1003F000401CB042FBDB30460022002121540B9907
:10040000C1F80880C1E900200FB0BDE8F08FBD1B26
:100410006D1CDEE74A4600DA694206A800F05CFA85
:1004200006AB93E8070003AB83E8070050460A9940
:1004300002F0ECFA8DE80700A0F500501F3800909C
:100440000398002D0ADD42F21F014A4608440023AA
:1004500003A90390684602F055FD09E0A0F500509D
:100460004A461F38002303A90390684602F05FFD47
:100470008DE807000004000C03D04FF0FF30410866
:1004800000E01046B8F1000F03D00022009215469C
:100490001EE0751E05D400F099F9303262556D1ECC
:1004A000F9D5B3460122084302D000227F1C04E0A4
:1004B0002078302801D100227F1E002A099784D09D
:1004C0001DE0112D07DA00F081F9303262556D1C04
:1004D00050EA0102F5D1084302D00098C8B10EE0FD
:1004E0000021681E05E0235C625C63542254401EB8
:1004F000491C8142F7DBAB46A81B401E0990002037
:1005000004F80B000B98099AC0F80880C0E9002B8A
:100510007AE711264FF0000857E72DE9F04F88469B
:100520000446D21D22F0070191B0D1E90001CDE9C6
:100530000A0102F033FE02460B98C00F01D02D20B5
:1005400007E02068810701D52B2002E0202101EA85
:10055000C000032A099001D0072A05DB0346414663
:10056000204600F079F90BE12078800601D5E0699A
:1005700000E00620B8F1650F814606D0B8F1660F9D
:1005800018D0B8F1670F70D131E00020B9F1110F28
:10059000009001DB112301E009F101030AAA01A97E
:1005A0000CA8FFF7E2FEDDE90C70002609F1010559
:1005B000834647E001204B4600904FF000470AAACF
:1005C00001A90CA8FFF7D1FEDDE90DB00C995D463D
:1005D000002610B909F101000D18B9EB050003D48C
:1005E000C0F1FF3609F10105A5EB09002BE0B9F1D7
:1005F000010F01DA4FF001090020B9F1110F00904D
:10060000484601DD112300E003460AAA01A90CA80F
:10061000FFF7ABFEDDE90C704D46002683462078DF
:1006200000070AD4AB4500DA5D4601A8012D04DDC0
:10063000411911F8011C302907D04F4502DA17F192
:10064000040F04DA012082460FE06D1EEEE7002F52
:1006500002DCED1B3E4403E0781CA84200DD7D1C5B
:10066000B81B00F1010A4FF000472078000703D4BF
:10067000AA4501DB4FF0FF3A0021B7F1004F0DF121
:1006800043088DF8431024D002202B23002F01DAD9
:100690007F422D230A21021EA0F1010000DC5FB180
:1006A00097FBF1FC97FBF1F201FB1C7C17460CF168
:1006B000300C08F801CDEEE7A8F1010003702188A5
:1006C000090501D5452100E06521A0F1010800F8E8
:1006D000011C09980FA9A1EB0807FF1D00B101201B
:1006E000411901EBEA70A1693844081A401EA06163
:1006F0002078C00602D42046FFF786FD099828B16D
:10070000D4E901219047206A401C20622078C0066D
:1007100022D52046FFF778FD1EE0002E04DBB3450E
:1007200002DD01A8805D00E03020D4E9012190477E
:10073000206A401C2062761CAAF101005FEA000AD0
:100740000AD100F03FF8C0680168405CD4E901219B
:100750009047206A401C2062281EA5F10105DCDCC0
:1007600007E0D4E9012118F8010B9047206A401CEA
:100770002062381EA7F10107F3DC2046FFF75AFD7F
:10078000032011B041E6000001694A1C02610878AB
:10079000704700B58FB0CDE90131002105910549C1
:1007A0007944CDE9031011466846FFF754FD0FB0B8
:1007B00000BD0000E5FFFFFF0A6802F8010B0A60B8
:1007C00070470000004870473000002030B5B0F19D
:1007D0000A0271F100034FEA900E4EEA817EB0EBFF
:1007E0000E0061EB91014FEA101E4EEA017E10EB04
:1007F0000E0041EB11114FEA102E4EEA016E10EB84
:100800000E0041EB11214FEA104E4EEA014E10EB63
:100810000E0041EB1141401841F100014FEAD000B8
:1008200040EA41704FEAD1014FEA810444EA9074F2
:1008300010EB800544EB01046D1944EB0404521BDA
:10084000A3414FF0000348BF0A3200D530BD401C21
:1008500041F1000130BD00002DE9F0411F46044682
:1008600003260168072A01F4006004DB08B116A51D
:1008700005E016A503E008B115A500E015A521F0D7
:1008800010002060A069C01EA0610FB1401EA061D1
:100890002046FFF7B9FC4FB1D4E901213846904713
:1008A000206A401C2062C01C206206E0206AFAE731
:1008B000D4E9012115F8010B9047761EF8D22046A5
:1008C000FFF7B8FCBDE8F0814E414E006E616E004E
:1008D000494E4600696E66002DE9F047814616468E
:1008E0008AB0354878440DC88DE80D003248784408
:1008F000801C03AC0DC884E80D0041F69B30084411
:10090000372190FBF1F290FBF1F5A5F1800501FB99
:1009100012041B3C02D56442012000E00020DFF8F5
:1009200098A080460027FA44AAF1BE0A0EE0E0072C
:100930000AD03246684607EB470101230AEB8101E2
:1009400002F0F5FA8DE8070064107F1C002CEED150
:10095000194F7F44AE3F19E0E80715D007EB0410AC
:100960000DF1180A90E80E008AE80E00C068F04207
:1009700001D1981908903246012306A903A802F074
:10098000D6FA03AB83E807006D10641C002DE3D199
:100990004FF0010332466946B8F1000F03A802D0B8
:1009A00002F0B0FA01E002F0C2FAC9E90001C9F8A8
:1009B00008200AB0BDE8F087A82E00000048704764
:1009C000100000207546FFF7F9FFAE4605006946A6
:1009D000534620F00700854618B020B5FFF7EEFB20
:1009E000BDE820404FF000064FF000074FF0000830
:1009F0004FF0000BAC46ACE8C009ACE8C009ACE86D
:100A0000C009ACE8C00921F007018D46704710B558
:100A10000446AFF300802046BDE81040FFF7BABBA4
:100A20004FF0013C50F8042B51F8043B9A4221D17D
:100A3000A2EB0C03934313EACC1317D150F8042B09
:100A400051F8043B9A4215D1A2EB0C03934313EAED
:100A5000CC130BD150F8042B51F8043B9A4209D126
:100A6000A2EB0C03934313EACC13DBD04FF000004E
:100A7000704700BFD01A01BAB1FA81F101F0180134
:100A800022FA01F0CB40DBB2C0B2C01AC1F12001A2
:100A90002CFA01F3D11A914311EAC311E6D1704740
:100AA00001491820ABBEFEE7260002007047000097
:100AB000FEE7000070470000B0B5044600F01EF9E4
:100AC000054640F20000C2F200000078611C18BF29
:100AD000044400BF00F012F9401BA042FAD3B0BD9D
:100AE0002DE9F04F82B00E68002E00F0038141F234
:100AF0000042C4F20102042340F2004E904208BFBB
:100B000003234FF6FF7CC4F2010E0093002401235F
:100B1000C1F2100C4FF0000A4FF0000949E000BF8D
:100B2000012704F00C030F229A402BEA020207FA75
:100B300003F34FEA9A051A4346F82520D1F804B08A
:100B400040F20C455FEACB22DEF8082054BF22EACF
:100B5000080242EA0802C4F20105CEF808202A6819
:100B60005FEA8B2354BF22EA080242EA08022A60A5
:100B70005FEA8B33DEF8042054BF22EA080242EA1F
:100B800008025FEACB33CEF80420DEF800204FF0F5
:100B9000010354BF22EA080242EA0802CEF800200C
:100BA0000E680AF1010A36FA0AF204F1040400F0B0
:100BB000A18003FA0AF816EA080FF1D04E686645DC
:100BC00012DC122E56D8DFE806F0350B4549555594
:100BD00055555555555555555555554D510000BF11
:100BE000D1F80C9046E000BF4FF6FF72C1F221022F
:100BF00096420FDC0022C1F2110296421AD0002266
:100C0000C1F21202964215D00022C1F22102964290
:100C100010D02FE00022C1F2220296420AD0002218
:100C2000C1F23102964205D00022C1F23202964250
:100C300020D100BF8A684AB1012A14BFC0F81480CD
:100C4000C0F810804FF0080914E000BF4FF004090D
:100C500010E000BFCA6802F108090BE04FF000097C
:100C600008E000BFCA6802F1040903E0CA6802F1A3
:100C70000C0900BF22460646BAF1080F24BF203AED
:100C8000043637680F25954027EA050509FA02F270
:100C90002A433260CA79D2067FF582AF41F2180347
:100CA000C4F202031A68AEF57E7642F001021A60C1
:100CB0001A6802F001020192019A2AF0030256F822
:100CC00002B040F60002C4F20102904210D040F699
:100CD0000042C4F2010290423FF422AF41F200020E
:100CE000C4F20102009F904208BF022719E700BF2B
:100CF000002716E702B0BDE8F08F000040F2441074
:100D0000C2F200000068704770B5B8B3044690F8AE
:100D10003D0028B9002084F83C00204600F09AF9F4
:100D2000242084F83D002068016821F00101016061
:100D3000016841F400410160016821F40041016053
:100D400000F052FB48F28041C0F21E0140F6001351
:100D5000D4F804E088424FF00001C0F23D0348F2AD
:100D6000A16C4FF0000238BF01219842C0F2010C83
:100D700038BF0122E64538BF0A460AB1012070BDDE
:100D80004DF68361C4F21B31A0FB01122168950C62
:100D90004B684FF4967623F03F0343EA9243754342
:100DA00044F6D3564B60C1F262060B6AA5FB0656A9
:100DB000B50923F03F03E64538BF950C6A1C1A437A
:100DC0000A62CA6948F2A0664CF6FF73C0F20106D7
:100DD000B64522EA03020BD801384FEA4E03B0FBB6
:100DE000F3F001306FF31F30042898BF04201EE099
:100DF000A368013863B119230EFB03F3B0FBF3F0D2
:100E000001306FF31F3078B100F5804008E000BF7B
:100E10000EEB4E03B0FBF3F001306FF31F3028B13F
:100E200000F5004003E000BF012000E00120104376
:100E3000C8610868D4E9072320F0C00010431843B4
:100E40000860886848F2FF3204F10C0690434CCEEB
:100E500018431043A5698860C86820F0FF0030433C
:100E60002843C860086840F0010008600020202185
:100E7000206484F83D10206384F83E0070BD0000BB
:100E80002DE9F04383B01E46174689460446FFF716
:100E900035FF94F83D10202920D10546206800BF79
:100EA0008169890716D5FFF729FF411B20681A2998
:100EB000F6D381698907F3D500202021206384F8C7
:100EC0003D1084F83E00216C41F02001216484F83B
:100ED0003C0003E094F83C10012903D1022003B048
:100EE000BDE8F083012184F83C100168C90703D1F3
:100EF000016841F001010160016840F2020821F43B
:100F000000610160212184F83D10102184F83E1019
:100F10000021216467626685618DC0F20108218528
:100F2000A8F10211E162E16A0A9E11F5803F18BF43
:100F300001291DD1016841F48071016020464FF004
:100F4000011100223346009501F004F950B12068E8
:100F50000068C00544BF4FF400702064012003B056
:100F6000BDE8F0832069B0F5804F07D1FE2015E081
:100F70000829DFD0216B1229DCD0DFE7062000EA48
:100F8000D9102168F030086108F106012046324688
:100F90002B4601F0C9F90028E0D1FF20216800EAC2
:100FA000090008612046414632462B4601F0BCF953
:100FB0000028D3D100200290206841690291806905
:100FC0000290029806E000BF204631462A4601F012
:100FD00061F818BB208D68B3204631462A4601F0DF
:100FE00013FAD8B9606A2168024612F8013B0B6116
:100FF0006262628D013A6285228D531E23854F699C
:101000007F07E1D51B04DFD0437802300B616062BB
:10101000608D01386085901E2085D5E7206C0428FE
:101020009CD12068016841F400710160012003B087
:10103000BDE8F0832068016841F400710160202060
:1010400084F83D00002084F83E0084F83C0003B0A2
:10105000BDE8F08310B586B045F200410068C4F2E7
:10106000000100228842049202D006B010BD00BFE9
:1010700041F21804C4F20204206840F00800206025
:10108000206800F0080001900198C0200290122012
:1010900003900320059001F5384002A9FFF720FDD9
:1010A000606840F400106060606800F40010019017
:1010B000019806B010BD000040F2000040F244115B
:1010C000C2F20000C2F2000100780A681044086011
:1010D0007047000080B542F20000C4F202000168CF
:1010E00041F010010160032000F08EF80F2000F0A5
:1010F00005F800F027F8002080BD000070B540F230
:101100000006C2F2000640F208013278C2F2000185
:101110004FF47A730968B3FBF2F20446B1FBF2F1C3
:10112000084600F04FFB0F2C4FF0010508D838B9E6
:101130004FF0FF3021460022002500F039F874609E
:10114000284670BD82B041F21800C4F20200016866
:10115000022241F001010160016801F001010191E9
:101160000199416841F080514160406800F0805031
:10117000009000980420C4F20100016862F31A6133
:10118000016002B070470000002848BF7047C1B23C
:1011900000F01F00012202FA00F04EF20012CEF21F
:1011A000000242EAD10121F003010860704700000B
:1011B00010B54EF60C5CCEF2000CDCF80030C3F338
:1011C000022E8EF00704042C28BF0424BEF1030372
:1011D0004FF0FF3E0EFA04F438BF0023A1439940BC
:1011E0000EFA03F39A43114300F00F0200F160433B
:1011F0000901043A03F564436244002848BF02F140
:101200000C03197010BD00004EF60C51CEF2000117
:101210000A684FF6FF031A4060F30A2242F080602A
:1012200040F0FD70086070472DE9F04381B0002860
:1012300000F0858042F20008C4F202080446D8F8A3
:1012400000000D4600F0070088420CD2D8F80000DC
:1012500020F007002843C8F80000D8F8000000F08C
:101260000700A8426BD1206841F204098107C4F24B
:10127000020917D5410705D5D9F8001041F4E061FE
:10128000C9F80010010705D5D9F8001041F46051E4
:10129000C9F80010D9F80010A26821F0F00111433C
:1012A000C9F80010C00741D1D8F8000000F00700CD
:1012B000A8420CD9D8F8000020F007002843C8F84D
:1012C0000000D8F8000000F00700A84237D12068DD
:1012D000410707D5D9F80010E26821F4E061114315
:1012E000C9F80010000708D5D9F80000216920F4DA
:1012F000605040EAC100C9F80000D9F8002002F0AF
:101300000C00082841F20020C0F27A0050D143F2CC
:10131000C273C2F38341C0F60003595CD2033BD4CD
:1013200040F60010C0F23D00484341E060680228EA
:101330000AD001282AD159F8041C890308D40120B5
:1013400001B0BDE8F08300BF59F8041C8901F6D54F
:10135000D9F8001021F003010843C9F80000FFF795
:10136000CDFC064641F28837D9F80000616800F0EC
:101370000C00B0EB810F97D0FFF7C0FC801BB84288
:10138000F2D9032001B0BDE8F08300BF59F8041C76
:101390008907D4D5DCE700BFD9F8002043F2C07339
:1013A000C2F34042C0F600039A5C4843B0FBF2F03F
:1013B000D9F8001043F2A872C1F30311C0F600027D
:1013C000515C40F2080220FA01F140F20400C2F23E
:1013D00000000068C2F200021160FFF78FFE0020DB
:1013E00001B0BDE8F083000040F2080041F20401C2
:1013F000C2F20000C4F202010068096843F2B87248
:10140000C1F30221C0F60002515CC84070470000E1
:101410002DE9F04182B0002868D00446007841F2FE
:101420000006C007C4F2020625D0706800F00C0068
:1014300004281BD0706800F00C00082802D17068E6
:10144000C00313D46068002800F06881B0F5A02FB5
:1014500000F07C81B0F5803F00F07C81306820F4A2
:1014600080303060306820F4802076E1306880037E
:1014700001D56068D0B32078800718D5706810F067
:101480000C0F07D0706800F00C0008286ED170684F
:10149000C0036BD43068800702D52069012825D1AC
:1014A0003068616920F0F80040EAC10030602078BF
:1014B00000071FD42078400732D4E56995B17068E1
:1014C00000F00C00082840F08F80012D0ED07068CD
:1014D000216A00F480328A4208D1616A00F47010F7
:1014E000884203D1002002B0BDE8F081012002B0A3
:1014F000BDE8F081A069002862D00020C4F242203B
:101500000121C0F88014FFF7F9FB0546706A8007D7
:1015100000F18C80FFF7F2FB401B0228F6D92AE18C
:10152000F06910F0805808D1F06940F08050F06107
:10153000F06900F080500090009847F20007C4F274
:1015400000073868C00529D4386840F480703860D6
:10155000FFF7D4FB054600BF3868C0051ED4FFF76F
:10156000CDFB401B6428F7D905E100BF20690028A6
:1015700040F20000C4F2422000F0828001210160AC
:10158000FFF7BCFB054600BF306880073FF588AF1A
:10159000FFF7B4FB401B0228F6D9ECE0E068002816
:1015A00000F08080052800F09780012800F09880E6
:1015B000306A20F001003062306A20F0040092E0CE
:1015C0000020C4F242200021C0F88014FFF796FBEF
:1015D000054600BF706A80077FF56CAFFFF78EFB92
:1015E000401B0228F6D9C6E00027C4F2422700209B
:1015F0003866FFF783FB022D05460BD1306880016A
:1016000040F1BE80FFF77AFB401B02284FF0030039
:10161000F4D968E7306880017FF564AFFFF76EFBAF
:10162000401B02284FF00300F4D95CE740F20800A9
:10163000C2F20000006844F6D351C1F26201A0FB7F
:101640000101480A019000BF00BF0198411E002817
:1016500001913FF42FAF00BF0198411E0028019176
:101660003FF428AF00BF0198411E002801913FF4CC
:1016700021AF00BF0198411E00280191E4D119E774
:1016800000210160FFF73AFB054600BF3068800784
:101690007FF50DAFFFF732FB401B02284FF0030030
:1016A000F4D920E7306A20F001003062306A20F07F
:1016B00004003062FFF722FB054641F2883700BF85
:1016C000306A800720D5FFF719FB401BB8424FF066
:1016D0000300F5D907E700BF306A40F0040030622C
:1016E000306A40F001003062FFF708FB054641F226
:1016F000883700BF306A800706D4FFF7FFFA401B27
:10170000B842F7D937E000BFB8F1000F7FF4D5AE8B
:10171000F06920F08050F061CFE600BF306820F41F
:1017200080303060306820F480203060FFF7E6FAC7
:10173000054600BF306880037FF59DAEFFF7DEFAF7
:10174000401B64284FF00300F4D9CCE6306840F425
:1017500080203060306840F480303060FFF7CEFA8F
:10176000054600BF306880033FF585AEFFF7C6FA37
:10177000401B6428F6D9032002B0BDE8F08100BF09
:10178000206AB0F5803F05D17168A26821F400316C
:10179000114371607168626A21F474111143084346
:1017A000706001203866FFF7A9FA044630688001AE
:1017B0003FF598AEFFF7A2FA001B02284FF0030096
:1017C000F4D990E6411E0020B0EB116F1CBF012040
:1017D00070474EF21002CEF2000251604EF62351D5
:1017E000CEF20001F0230B7007219060116070476A
:1017F000704700007047000010B590F83C20012AA7
:101800004FF0020233D080F83D200268D2F804E0A5
:10181000D2F808C00C682EF07003234340F2FF7426
:10182000C4F20004A24253600ADCB2F1804F13D02C
:1018300040F20043C4F200039A420DD011E000BF11
:1018400042F60043C4F201039A4205D040F6000379
:10185000C4F200039A4204D149682CF08003194372
:1018600091600121002280F83D1080F83C20104654
:1018700010BD0000002804BF0120704710B50446C9
:1018800090F83D0028B9002084F83C00204600F084
:1018900067F8022084F83D00206840F2FF73026878
:1018A000C4F2000342F6004C9842C4F2010C15DC6D
:1018B000B0F1804F1AD040F20041C4F200018842DA
:1018C00014D0984218DCB0F1804F1DD040F2004196
:1018D000C4F20001884217D01AE000BF604505D06D
:1018E00040F60001C4F200018842EAD1A16822F06A
:1018F00070020A439842E6DD604505D040F60001DB
:10190000C4F20001884203D1216922F440720A43E3
:10191000A36922F08001D4F804E0E268194360452D
:101920000160C262C0F828E002D16169CCF83010D1
:1019300001214161002084F8461084F83E1084F8AB
:101940003F1084F8401084F8411084F8421084F865
:10195000431084F8441084F8451084F83D1010BDFD
:1019600080B586B0014640F60000C4F20100096867
:1019700000F5105300229942059201D006B080BDB7
:1019800041F21801C4F202010B6843F400630B60DA
:101990000B6803F400630193019B0B6843F004039D
:1019A0000B60096801F00401019101994FF4807105
:1019B000CDE9021202A90492FFF792F81B20002140
:1019C0000022FFF7F5FB1B20FFF7DEFB06B080BD12
:1019D00080B590F83C20012A4FF0020200F0C2804E
:1019E00080F83D20D0F800C04FF67772DCF8083060
:1019F00023EA0202CCF808200B684F2B28DC1F2BAF
:101A000044DD202B45D0302B43D0402B40F0AC8020
:101A1000D1F804E0C968DCF82030DCF8202022F09E
:101A20000102CCF82020DCF8182022F0F00242EA73
:101A3000011123F00A0242EA0E02CCF81810CCF889
:101A40002020DCF8081041F0470121F0300180E04F
:101A50006F2B27DDB3F5005F48D0B3F5805F7AD0F8
:101A6000702B40F08180D1E901E3C968DCF80820DF
:101A700043EA0E0322F47F4243EA01211143CCF8EA
:101A80000810DCF8081041F0770162E00BB1102B70
:101A90006AD1DCF8081021F07001194341F0070108
:101AA00057E000BF502B35D0602B5DD1D1F804E05A
:101AB000C968DCF82030DCF8202022F01002CCF8D5
:101AC0002020DCF8182022F4704242EA013123F091
:101AD000A00242EA0E12CCF81810CCF82020DCF854
:101AE000081041F0670121F0100132E0D1E901E373
:101AF000C968DCF8082043EA0E0322F47F4243EA77
:101B000001211143CCF80810DCF8081041F48041A1
:101B10001FE000BFD1F804E0C968DCF82030DCF831
:101B2000202022F00102CCF82020DCF8182022F03E
:101B3000F00242EA011123F00A0242EA0E02CCF856
:101B40001810CCF82020DCF8081041F0570121F0E3
:101B50002001CCF808100022012180F83D1000215E
:101B600080F83C10104680BD0122F5E77047000068
:101B7000F0B590F83C30012B04BF0220F0BD4FEAD5
:101B8000B202032A22D8DFE802F00327476500BF2C
:101B90000368D1E900C5D1F80CE01C6A1A6A40F26A
:101BA000FF7722F001021A621A4652F8186FC4F247
:101BB0000007BB4272DCB3F1804F7BD040F200479C
:101BC000C4F20007BB4275D08EE000BF01210022A5
:101BD00080F83C200846F0BD0368D1E900E6D1E971
:101BE00002C11C6A1A6A360222F010021A621A46F0
:101BF00052F8185F4FF2FF07BE4325F4734561F3B7
:101C00000F3624F0A0040EF00A0746EA050144EA64
:101C1000071711601F623AE00768D1E900C5D1E9F2
:101C200002313C6A3A6A61F3071522F480723A6223
:101C30003A4652F81C6F26F0F30645EA06014FEAD1
:101C40005C0666F3492411603C62116821F00C01C6
:101C5000116040E00368D1E900E6D1E902C11C6AE5
:101C60001A6A360222F480521A621A4652F81C5F2F
:101C70004FF2FF07BE4325F4734561F30F364FEA79
:101C80005E0746EA050167F34D3411601C62116876
:101C90004FEA0C2321F4406111601CE042F600473A
:101CA000C4F20107BB4205D040F60007C4F20007AA
:101CB000BB4219D126F00306354324F00A070CF085
:101CC0000A066EF3071537449D611F629F6927F06E
:101CD0000C079F618B681168194311600021002275
:101CE00080F83C200846F0BD46F00105E5E700001D
:101CF000002804BF0120704710B5044690F83D004D
:101D000028B9002084F83C00204600F067F8022043
:101D100084F83D00206840F2FF730268C4F20003BB
:101D200042F6004C9842C4F2010C15DCB0F1804F31
:101D30001AD040F20041C4F20001884214D0984207
:101D400018DCB0F1804F1DD040F20041C4F2000118
:101D5000884217D01AE000BF604505D040F6000168
:101D6000C4F200018842EAD1A16822F070020A435D
:101D70009842E6DD604505D040F60001C4F200015E
:101D8000884203D1216922F440720A43A36922F0F8
:101D90008001D4F804E0E268194360450160C26242
:101DA000C0F828E002D16169CCF83010012141610E
:101DB000002084F8461084F83E1084F83F1084F820
:101DC000401084F8411084F8421084F8431084F8DD
:101DD000441084F8451084F83D1010BD7047000091
:101DE00061B1082916D0042919BF00F1410200F1A0
:101DF000450300F13F0200F143030FE090F83E205D
:101E000090F84230012A4FF0010208BF012B1DD08B
:101E10001046704700F1400200F1440312781B782D
:101E2000012A4FF0010208BF012BF1D1022208293B
:101E300018D0042922D180F83F2080F843204FEAAF
:101E4000B103032B4FF00102E2D821E0022280F817
:101E50003E2080F842204FEAB103032B4FF00102ED
:101E6000D6D815E080F8402080F844204FEAB1032E
:101E7000032B4FF00102CBD80AE000BF80F84120CD
:101E800080F845204FEAB103032B4FF00102BFD881
:101E900043F2D47C0068C0F6000C5CF823C0C36831
:101EA00001F01F0143EA0C03C360036A02FA01F167
:101EB00023EA01020262026A114340F2FF72C4F295
:101EC00000029042016209DCB0F1804F12D040F272
:101ED0000041C4F2000188420CD012E042F60041F9
:101EE000C4F20101884205D040F60001C4F20001AD
:101EF000884206D1816801F00701062904BF00204D
:101F000070470168002241F00101016010467047EE
:101F100010B5016804460869800744BFC8685FEAD5
:101F2000807039D40869400744BFC8685FEA4070D0
:101F30003ED40869000744BFC8685FEA007045D412
:101F40000869C00644BFC8685FEAC0604AD408692F
:101F5000C0071CBFC8685FEAC07051D1086900069D
:101F600044BFC8685FEA006052D40869400644BFB5
:101F7000C8685FEA406053D40869800646BFC868F5
:101F80005FEA806010BD6FF0200220460A61BDE864
:101F90001040FFF72FBC00BF6FF002000861012066
:101FA00020778869800743D02046FFF7DFFD45E0B2
:101FB0006FF00400086102202077886910F4407FE8
:101FC00040D02046FFF7D2FD42E000BF6FF008008E
:101FD000086104202077C86980073DD02046FFF7BC
:101FE000C5FD3FE06FF01000086108202077C86948
:101FF00010F4407F3AD02046FFF7B8FD3CE000BF28
:102000006FF001000861204600F03EF82168A5E766
:102010006FF0800008612046FFF7EAFB2168A4E723
:102020006FF040000861204600F030F82168A3E717
:10203000204600F025F8204600F024F82168002012
:1020400020776FE7204600F01BF8204600F01AF8D2
:102050002168002020776CE7204600F011F8204628
:1020600000F010F821680020207769E7204600F092
:1020700007F8204600F006F821680020207766E780
:102080007047000070470000704700007047000074
:10209000FEE7000070B50368044653F8140F4007CC
:1020A00011D40E46481C29D086BB00BF18684005D5
:1020B00027D4FEF723FE236853F8140F400739D5C1
:1020C00018684007F2D5002070BD00BF18684007AF
:1020D000F9D41868400514D418684007F3D4186878
:1020E00040050ED418684007EDD41868400508D4A0
:1020F000186840074FF0000048BF70BD18684005E1
:10210000E4D56FF480601860042014E0154603E005
:1021100053F8140F4007D6D418684005F1D4FEF7E1
:10212000EDFD401B2368B042F2D958694007EFD457
:10213000202000E0202000212022216384F83D207F
:1021400084F83E10226C10432064012084F83C1077
:1021500070BD00002DE9F041054600681E4614469A
:1021600001F47F0201338FB242D0DDF81880B2F55E
:10217000803F40F0878040693840C01BB0FA80F053
:102180004009A04240F0C8804EB924E04069384080
:10219000C01BB0FA80F04009A04240F0BD80FEF7BD
:1021A000ADFDA0EB08012868B142EFD94169394083
:1021B000C91BB1FA81F14909A142E7D19BE000BFF7
:1021C00040693840C01BB0FA80F04009A0424FF08F
:1021D000000040F0A680FEF791FD28684169394073
:1021E000C91BB1FA81F14909A142E9D183E000BFDD
:1021F000B2F5803F24D100BF41693940C91BB1FA13
:1022000081F14909A14240F0878041693940C91BE9
:10221000B1FA81F14909A14240F07E80416939401B
:10222000C91BB1FA81F14909A14275D1416939400F
:10223000C91BB1FA81F14909A142DDD06CE000BFB0
:1022400081693940C91BB1FA81F14909A14263D1C1
:1022500081693940C91BB1FA81F14909A1425BD1B9
:1022600081693940C91BB1FA81F14909A14253D1B1
:1022700081693940C91BB1FA81F14909A142DFD016
:102280004AE000BF80693840C01BB0FA80F04009C6
:10229000A04241D146B923E080693840C01BB0FA62
:1022A00080F04009A0423BD1FEF728FDA0EB0801D9
:1022B0002868B142F0D981693940C91BB1FA81F16E
:1022C0004909A142E8D116E080693840C01BB0FA44
:1022D00080F04009A0424FF0000018BFBDE8F08137
:1022E000FEF70CFD286881693940C91BB1FA81F1FC
:1022F0004909A142E8D100202021286385F83D103A
:1023000085F83E00296C41F02001296485F83C00E5
:102310000120BDE8F08100BF0020BDE8F08100BFD2
:102320000020BDE8F0810000F0B581B004460068EF
:102330001D4643698FB203EA0701B94202D100206A
:1023400001B0F0BD41691646013201F4806125D02B
:10235000002940D1CEB100BFFEF7D0FC411B206860
:10236000B14203D941693940B9424BD14169394041
:10237000B942E4D041694905EED52CE041693940C4
:10238000B942DCD04169490525D4FEF7B7FC206885
:1023900041693940B942F1D0202024E0D9B94169DE
:1023A0003940B942CBD04169490514D4416939401B
:1023B000B942C4D0416949050DD441693940B94297
:1023C000BDD04169490506D441693940B942B6D00A
:1023D00041694905E3D5016841F4007101606FF47A
:1023E00080614161042000212022216384F83D2086
:1023F00084F83E10226C1043206484F83C100120C5
:1024000001B0F0BD2020EEE770B50368044653F834
:10241000140F000611D40E46481C29D086BB00BFFD
:102420001868400527D4FEF769FC236853F8140F99
:10243000000639D518680006F2D5002070BD00BF2F
:1024400018680006F9D41868400514D41868000606
:10245000F3D4186840050ED418680006EDD4186847
:10246000400508D4186800064FF0000048BF70BD52
:1024700018684005E4D56FF480601860042014E00B
:10248000154603E053F8140F0006D6D4186840052B
:10249000F1D4FEF733FC401B2368B042F2D95869EF
:1024A0000006EFD4202000E020200021202221631C
:1024B00084F83D2084F83E10226C104320640120F3
:1024C00084F83C1070BD0000FEE70000FEE700004D
:1024D0007047000070470000FEF7EEBD7047000037
:1024E0002DE9F04140F2FC04C2F200042046FFF75F
:1024F0000FFD206840F27007C2F20007406B798838
:1025000044F24022411AB98089B2C0F20F02B2FBF4
:10251000F1F438807880204601F096F8B8602046C3
:1025200000F0FAFF40F63D2247F67053CAF2D73268
:10253000C4F2330304460D4600F094FE00F060FE42
:1025400043F2F47807F11006C0F60008F860304650
:10255000414622462B46FDF743FE852000F0FCF85D
:10256000304600F01BF9F86801F042F807F1240446
:1025700002460B4620464146FDF732FEC52000F0DC
:10258000EBF82046BDE8F04100F008B9FEE7000096
:102590002DE9F04184B048F68C0040F2A804C0F662
:1025A0000C00C2F2000402904FF0640802AA204618
:1025B0004E210423CDF80080FEF762FC42F62D1672
:1025C0004627C0F60D1603AD20464E212A460423A9
:1025D0000396CDF80080FEF753FC013FF4D104B020
:1025E000BDE8F08170B582B03220FEF765FA40F2A6
:1025F000A80443F63C06C2F20004C0F60C066425AB
:1026000001AA20464E21042301960095FEF738FCCE
:102610000520FEF751FA01AA20464E210423019617
:102620000095FEF72DFC0120FEF746FA01AA204690
:102630004E21042301960095FEF722FC0A20FEF7A6
:102640003BFA42F62C00C0F60C00019001AA20468D
:102650004E2104230095FEF713FC0A20FEF72CFA06
:1026600042F62C00C8F68C00019001AA20464E21AB
:1026700004230095FEF704FC0120FEF71DFA40F646
:102680000C00C8F68C00019001AA20464E210423BC
:102690000095FEF7F5FB0120FEF70EFA40F60C0060
:1026A000C1F61C00019001AA20464E21042300958A
:1026B000FEF7E6FB0120FEF7FFF90120FEF7FCF92B
:1026C00040F60C00C6F66C00019001AA20464E218F
:1026D00004230095FEF7D4FB0120FEF7EDF940F648
:1026E0000C00CCF6CC00019001AA20464E21042318
:1026F0000095FEF7C5FB02B070BD0000012805D0B3
:10270000002808BF41F0800102E000BF41F0C00195
:1027100080B582B021F00F00090100F10C020830F1
:102720008DF8050001F10C008DF8060001F108009C
:102730008DF8070040F2A8008DF804204FF0640CDB
:10274000C2F2000001AA4E210423CDF800C0FEF71A
:1027500097FB02B080BD000080B582B000F0F001B0
:10276000000101F10C0208318DF8051000F10C0197
:1027700008308DF8070040F2A8008DF804208DF88D
:1027800006104FF0640CC2F2000001AA4E2104238F
:10279000CDF800C0FEF774FB02B080BDF0B583B089
:1027A000017821B340F2A804461E6427C2F2000457
:1027B00002AD00BF21F00F00090100F10D02093048
:1027C0008DF8090001F10D008DF80A0001F10900F2
:1027D0008DF808208DF80B0020464E212A46042350
:1027E0000097FEF74DFBB17801360029E2D103B026
:1027F000F0BD000092B0FEF76DFC00240120CDE991
:102800000B44CDE9094406900A904FF4E0104FF4D0
:10281000803102250F9006A8CDE90714CDE90D51AE
:10282000FEF7F6FD20B1EFF3108072B6FEE700BFB1
:102830000F20CDE901054FF48060CDE9040401A823
:1028400002210394FEF7F0FC20B1EFF3108072B682
:10285000FEE700BF41F21800C4F20200016845F231
:10286000004541F0200101600168C4F2000501F05B
:102870002001069106990168002441F004010160DD
:1028800001684FF4804201F0040106910699016845
:1028900041F008010160006848F2A06100F0080002
:1028A0000690069840F2A800C2F20000C0F20101B2
:1028B000C0E90051C0E90244C0E90424C0E906446B
:1028C0000462FEF721FA28B1EFF3108072B600BF60
:1028D000FEE700BF40F2FC0005F55841C2F20000DF
:1028E0004FF6FF730994CDE90744CDE91044072260
:1028F00080E81600C0E90334C0E90544FEF7BAFFDA
:1029000020B1EFF3108072B6FEE700BF4FF48050A5
:10291000069040F2FC00C2F2000006A9FFF758F84A
:1029200020B1EFF3108072B6FEE700BF40F2FC006A
:10293000C2F20000FFF7DCF920B1EFF3108072B6AD
:10294000FEE700BF40F2FC00C2F2000010A9FEF753
:1029500053FF28B1EFF3108072B600BFFEE700BF4F
:10296000002001210190CDE90210049040F2FC000A
:10297000C2F2000001A90022FFF7FAF820B1EFF33C
:10298000108072B6FEE700BF40F2FC00C2F2000009
:102990000021FFF725FAFFF725FEFFF7F9FD14A444
:1029A00015A516A617A700BF00200021FFF7A6FE59
:1029B0002046FFF7F3FE00200E21FFF79FFE28467A
:1029C000FFF7ECFE01200021FFF798FE3046FFF7ED
:1029D000E5FE01200C21FFF791FE3846FFF7DEFEF1
:1029E000FFF77EFD44F62060FEF766F8DCE700BFE7
:1029F0002046203D00000000487A00002076203D5F
:102A0000000000006B6D2F68000000005FEA400CC2
:102A100008BF91F0000F4FEA8C234FEAC12243EA2E
:102A200051514FEA1C5018BF00F5F0404FEA3000FA
:102A300018BF41F000415FEA6C5C00F02980BCF1F6
:102A4000FF3F08BF40F080407047130C06BF1204E0
:102A50004FF0100C4FF0000C130E04BF12020CF1DB
:102A6000080C130F04BF12010CF1040C930F04BFE8
:102A700092000CF1020CD30F04BF52000CF1010CB8
:102A800011464FF00002A0F11F00A0EB0C007047B0
:102A900011F0004F08BF704731F000413FF4D5AF4F
:102AA0000B0C06BF09044FF0100C4FF0000C0B0E7E
:102AB00004BF09020CF1080C0B0F04BF09010CF153
:102AC000040C8B0F04BF89000CF1020CCB0F04BF68
:102AD00049000CF1010CCCF1200322FA03F341EA86
:102AE000030102FA0CF2A0EB0C0000F101007047A8
:102AF00023F07F4720F07F4C80EA030000F0004085
:102B0000ACEB070303F57C5303F1FF032DE9804988
:102B100009B44FEA144324EA03484FEA154B25EA67
:102B20000B4E0FF2042606EB13273E7803FB0667D5
:102B3000C7F5000707FB06F64FEAD64606F1020680
:102B40004FEA543707FB066CCCF1005C4FEA1C4798
:102B50002CEA074C0CFB06F507FB06F404EB1546C4
:102B60004FEA961649085FEA320234BF00204FF060
:102B700000404FEAD13706FB07FC4FEA1C4C0CFB28
:102B80000BF7D21B03FB0CF761EB07010CFB0EF7F5
:102B9000B0EB074072EB17420CFB08F734BFA2EB17
:102BA0000742B2EB074261EB17414FEA0C444FEA90
:102BB000910706FB07FC4FEA1C4C0CFB0BF7B0EB34
:102BC000C74072EB573203FB0CF734BFA2EBC7428E
:102BD000B2EBC74261EB57310CFB0EF7B0EBC7000D
:102BE00072EB57720CFB08F734BFA2EBC702B2EBD3
:102BF000C70261EB57714FEA816141EA92114FEAD6
:102C0000826242EA90124FEA806004EBCC04039F98
:102C10004FEAD13706FB07FC4FEA1C4C0CFB0BF7C5
:102C2000D21B03FB0CF761EB07010CFB0EF7B0EBBB
:102C3000074072EB17420CFB08F734BFA2EB0742C8
:102C4000B2EB074261EB17414FEA8C5504EB9C2431
:102C50004FEA910706FB07FC4FEA1C4C0CFB0BF7F5
:102C6000B0EBC74072EB573203FB0CF734BFA2EB5B
:102C7000C742B2EBC74261EB57310CFB0EF7B0EB2A
:102C8000C70072EB57720CFB08F734BFA2EBC70208
:102C9000B2EBC70261EB57714FEA816141EA9211D1
:102CA0004FEA826242EA90124FEA806015EB4C25AF
:102CB00044F100044FEAD13706FB07FC4FEA1C4CF5
:102CC0000CFB0BF7D21B03FB0CF761EB07010CFBB2
:102CD0000EF7B0EB074072EB17420CFB08F734BF5E
:102CE000A2EB0742B2EB074261EB17414FEA813199
:102CF00041EA92414FEA823242EA90424FEA803002
:102D00004FEA0C7615EB1C1544F1000448EA034326
:102D10004EEA0B484FF0000EB2EB080C71EB0307C4
:102D200024BF624639464EEB0E0E4FF0000B0018E2
:102D3000524149414BEB0B0BB2EB080C71EB030713
:102D40007BF1000B24BF624639464EEB0E0E4FF06E
:102D5000000B0018524149414BEB0B0BB2EB080C36
:102D600071EB03077BF1000B24BF624639464EEB43
:102D70000E0E51EA020718BF46F0010616EB0E765A
:102D800055F1000254F1000103D5BDE88901BDE809
:102D90000088BDE88901BDE80048B619524141EB01
:102DA0000101A3F10103704780807F7E7D7C7B7AE7
:102DB0007978777676757473727171706F6E6E6DE7
:102DC0006C6C6B6A6A69686867666665646463638D
:102DD00062616160605F5F5E5E5D5D5C5C5B5B5A13
:102DE0005A59595858575756565555555454535380
:102DF00052525251515050504F4F4F4E4E4D4D4DDB
:102E00004C4C4C4B4B4B4A4A4A4949494848484725
:102E10004747474646464545454444444443434363
:102E200043424242424141419C46002B30D477000C
:102E30002BD04FEA37071CB503B44FF010004FF00A
:102E40001001BAF1000F06D0BCF1000FDCBF40F05A
:102E5000080040F008014FF000000FBCBDE8104032
:102E60000BF1010BBBF1010F08BF5FEA170722BF8F
:102E700012F1010211F101014FF0004143F1000391
:102E800000F0004043EA00007047F9D35708D0E74C
:102E900046EA06464FEA164613F1400F1FDD13F1CE
:102EA000200FDFBF16430A46002120335B42BED00D
:102EB000C3F1200746EA06464FEA164602FA07F72C
:102EC00046EA070622FA03F2C3F1200701FA07F7E0
:102ED00042EA070221FA03F14FF00003A7E746EAAE
:102EE000020646EA06464FEA164646EA0106BCBF17
:102EF00046EA0646360C4FF000034FF000024FF052
:102F0000000194E72DE9804C70B49A46934691E80D
:102F1000380007C831EA400C48BF34EA430C03D5F7
:102F2000FFF7E6FDFFF780FFF0BCBDE8008C2DE960
:102F3000804C70B49A46934691E8380007C810F068
:102F4000804F08BF13F0804F03D100F005F8FFF762
:102F50006BFFF0BCBDE8008C20F07F4723F07F4C76
:102F600080EA030000F0004007EB0C03A3F57C535C
:102F7000A3F1FE0392F0000F00F0B38095F0000F74
:102F800000F077802DE901494FEA114021EA00481D
:102F90004FEA144624EA064700FB06FC08FB06F647
:102FA00007FB08F818EB06484CEB164C00FB07F73C
:102FB00018EB07484CEB17404FEA124B22EA0B4E36
:102FC0004FEA154625EA06470BFB06FC0EFB06F604
:102FD00007FB0EFE1EEB064E4CEB164C0BFB07F7E9
:102FE0001EEB074E4CEB174B18EB0B0840F10000A3
:102FF00018EB0E0B58EB000840F100008F1A4FF051
:1030000000014FF000063CBFC943661B14BFB5EB7F
:10301000040C00213CBFC943F61B4FEA174427EAC2
:1030200004454FEA1C472CEA074C04FB076205FBEA
:1030300007F70CFB05F616EB074642EB174204FBBD
:103040000CFC16EB0C4642EB1C421BEB060658EB45
:10305000020241414EEA8E0E46EA9E0601D5BDE8C7
:103060000189B619524141EB0101A3F10103BDE809
:1030700001894FEA144524EA05464FEA114721EA3F
:10308000074C05FB07F406FB07F70CFB06F111EBF9
:10309000074144EB174405FB0CFC11EB0C4144EBDE
:1030A0001C444FEA124722EA074C05FB07F206FBD5
:1030B00007F70CFB06F616EB074642EB174205FB3B
:1030C0000CFC16EB0C4642EB1C456A1854F100014F
:1030D00048BF7047B619524141EB0101A3F101030A
:1030E000704795F0000F37D04FEA114221EA0246AF
:1030F0004FEA144724EA074C02FB07F106FB07F7E7
:103100000CFB06F414EB074441EB174102FB0CFCEB
:1031100014EB0C4441EB1C414FEA154725EA074CE0
:1031200002FB07F506FB07F70CFB06F616EB074656
:1031300045EB174502FB0CFC16EB0C4645EB1C421D
:10314000121951F1000148BF7047B619524141EBC5
:103150000101A3F1010370474FEA144524EA054633
:103160004FEA114721EA074C05FB07F106FB07F779
:103170000CFB06F212EB074241EB174105FB0CFC7E
:1031800012EB0C4251EB1C414FF0000648BF704758
:10319000921841EB0101A3F101037047490050EA85
:1031A000C12018BF04204A0D18BF40F0010040F2B2
:1031B000FF72B2EB515F08BF40F00200012808BF68
:1031C0000520704730380A2801D2012070470020BE
:1031D0007047000010B500290AD00878002807D0F1
:1031E00005487844FDF71CFC002801D0002010BDE4
:1031F0000248784410BD00003A0600003206000084
:1032000021F0004201F00043A2F16052B2F5801FAC
:1032100028BFD2F17F6C0BD95FEA001C43EAC202DF
:1032200042EB507018BF704728BF20F00100704774
:10323000B2F5801FBCBF184670474FEA410C1CF521
:10324000001F02D2084600F05DBA70B500F07BF9AD
:1032500000000089FFF7F6BF4FF00040A0F58000A6
:10326000704700002DE9C04130B4DFF8A4C23CEA49
:10327000111418BF3CEA131400F0ED801CEA11147D
:1032800081EA030544EAD57418BF1CEA131500F05F
:10329000C880A4EB050404F17F7404F500344FF0FA
:1032A000004545EAC12145EAC32341EA505143EABA
:1032B00052534FEAC0204FEAC222994208BF9042BF
:1032C00000F09D804FEA13650FF24416765D4FEAD9
:1032D000134506FB05F7C7F1807706FB07F74FEAB2
:1032E000D737A7FB03687642A7FB06CEC8F5803820
:1032F00038BFA8F1010807FB08E6A6FB028C4FF0D7
:10330000000EE6FB03CEDCF1000CCEF1004E38BF20
:10331000AEF1010EA6FB0C584FF00007E6FB0E873E
:10332000A1FB08C6A0FB07CE16EB0E064FF000056A
:1033300045F10005E1FB076515F1E04E7EBFA4F500
:1033400080345FEA46066D4116F1800745F10005BD
:103350004FEA172747EA05674FEA15254FEA066641
:10336000A6F1DE46B6F1805F20D9384605EBC47180
:1033700024F0010C01EB0C11BCF1FE6F02D8F0BC83
:10338000BDE8008124425CBF01F5801E9EEAC47F37
:1033900002D4F0BCBDE80081244200F13980A1F1E3
:1033A000C041F0BCBDE8004100F01BB94FEAD0209D
:1033B00040EA41504FEAD1214FEAD22242EA435239
:1033C0004FEAD323A7FB028607FB036605FB0266D1
:1033D0001EEA0E0F58BFA6EB0056B6EB00564FEA9A
:1033E000520E4EEAC37E18EB0E0E56EB530EBCD5B2
:1033F00018EB02085E417F1C55F10005B5E74FF45C
:1034000080154FF000074FF000064FF00008ACE7C2
:1034100001F1C04101F000414FF00000F0BCBDE8F7
:1034200000810CEA131511EA0C1F00D00CE013EA1E
:103430000C1F00F026804FF0000081EA030101F02C
:103440000041F0BCBDE80081F0BCBDE8004181EA6C
:10345000030100F0C6B8F0BCBDE8004170B500F053
:1034600072F800BF097EFC3E00F007B84FF0000084
:1034700081EA030101F00041704781EA030100F095
:10348000B0B8F0BCBDE8004122494FF000007047E1
:10349000FFFDFBF9F7F5F4F2F0EEEDEBE9E8E6E419
:1034A000E3E1E0DEDDDBDAD8D7D5D4D3D1D0CFCDA0
:1034B000CCCBCAC8C7C6C5C4C2C1C0BFBEBDBCBBD9
:1034C000BAB9B8B7B6B5B4B3B2B1B0AFAEADACABD4
:1034D000AAA9A8A8A7A6A5A4A3A3A2A1A09F9F9EAE
:1034E0009D9C9C9B9A999998979796959594939360
:1034F000929191908F8F8E8E8D8C8C8B8B8A8989F7
:103500008888878786858584848383828281818079
:103510000000FF070000F87F10F0004248BF404263
:10352000B0FA80F310FA03F10AD0C3F11D0303F5DA
:10353000806302EB03524FEA415002EBD121704706
:103540004FF0000070470EF1020E2EF0030E5EF8F1
:10355000046B364205D4012A43EB030515F5001F21
:1035600012D8012841EB010C1CF5001F0CD80ED11C
:103570004FEAD17C0CEB4C0C0CF1020C15F5001F42
:1035800008BF4CEBD37C04E04FF0080C01E04FEA9D
:10359000D37C0CEB4C0526FA05F606F00706B6F1CF
:1035A000040C06D20EEB860CBDE870404CF0010C0A
:1035B0006047DFE80CF0090B02024FF00041A1F573
:1035C00000214FF0000070BD19461046012851EB54
:1035D000010418BFD4F5001484BF002001F000419D
:1035E00070BD0808A0F500114FEA310170470000D6
:1035F00043004FEAD30C4FEA3C0C43401FBF400747
:103600000CF1605113F0FE4F70471CF0006F03D1B6
:103610000CF00041002070470CF0004343EA50706A
:1036200040EACC0010B500F027F800BF000000927F
:103630004FEA0001FFF7D5BF4FF00041A1F500218F
:103640004FF000007047000010F0004148BF4042BA
:10365000B0FA80F310FA03F2C3F19D030BD051EAE4
:10366000C35101EB1220530638BF704700F101002F
:1036700008BF20F0010070470EF1020E2EF0030E7D
:103680005EF8044B244204D44FEA4102B2F17F4F6A
:1036900011D84FEA4003B3F17F4F0CD80ED14FEA57
:1036A000D07C0CEB4C0C0CF1020CB2F17F4F08BF3C
:1036B0004CEBD17C04E04FF0080C01E04FEAD17CE8
:1036C0000CEB4C0324FA03F404F00704B4F1040CEB
:1036D00006D20EEB840CBDE810404CF0010C6047A4
:1036E000DFE80CF0070802024FF00040A0F5800070
:1036F00010BD0846420018BFD2F1807288BF00F0AA
:10370000004010BDFF2141EAD050C0057047FCF7D2
:1037100004BF000002400000000000A00000000004
:1037200005400000000000C8000000000C40000040
:103730000000409C00000000194000000020BCBEBA
:103740000000000034400000BFC91B8E00000004D0
:10375000B5400000504BCFD06607E2CF010000001B
:103760006C4100003E8251AADFEEA7340100000048
:10377000D9420000DCB5A0E23A301F97FFFFFFFFFF
:10378000B4450000FD25A0C8E9A3C14FFFFFFFFF1E
:10379000FF3F00000000008000000000FF3F00002D
:1037A0000000008000000000000000000000000099
:1037B00001020304060708090000000001020304D7
:1037C000010202030405060708090A0B0C0D0E0F7F
:1037D00010100000020000000400000008000000BB
:1037E00010000000FDFFFFFFFBFFFFFFF7FFFFFFE3
:1037F000EFFFFFFF25332E32660000003838000847
:1038000000000020100000002801000848380008CF
:103810001000002038070000440100081C000000D0
:1038200043000000F8FFFFFF0C0000000E00000046
:103830000F0000002E00000001000000100000003A
:083840000024F4000000000068
:04000005080000ED02
:00000001FF
